{
  "contractName": "PetShop",
  "abi": [
    {
      "inputs": [],
      "payable": false,
      "stateMutability": "nonpayable",
      "type": "constructor"
    },
    {
      "anonymous": false,
      "inputs": [
        {
          "indexed": false,
          "internalType": "address",
          "name": "branch",
          "type": "address"
        },
        {
          "indexed": false,
          "internalType": "uint256",
          "name": "id",
          "type": "uint256"
        }
      ],
      "name": "BranchAdded",
      "type": "event"
    },
    {
      "constant": true,
      "inputs": [
        {
          "internalType": "uint256",
          "name": "",
          "type": "uint256"
        }
      ],
      "name": "branches",
      "outputs": [
        {
          "internalType": "uint256",
          "name": "id",
          "type": "uint256"
        },
        {
          "internalType": "address",
          "name": "owner",
          "type": "address"
        },
        {
          "internalType": "string",
          "name": "location",
          "type": "string"
        },
        {
          "internalType": "string",
          "name": "phoneNumber",
          "type": "string"
        }
      ],
      "payable": false,
      "stateMutability": "view",
      "type": "function"
    },
    {
      "constant": true,
      "inputs": [],
      "name": "newBranchId",
      "outputs": [
        {
          "internalType": "uint256",
          "name": "",
          "type": "uint256"
        }
      ],
      "payable": false,
      "stateMutability": "view",
      "type": "function"
    },
    {
      "constant": true,
      "inputs": [],
      "name": "owner",
      "outputs": [
        {
          "internalType": "address",
          "name": "",
          "type": "address"
        }
      ],
      "payable": false,
      "stateMutability": "view",
      "type": "function"
    },
    {
      "constant": false,
      "inputs": [
        {
          "internalType": "address",
          "name": "branchAddress",
          "type": "address"
        }
      ],
      "name": "addBranch",
      "outputs": [],
      "payable": false,
      "stateMutability": "nonpayable",
      "type": "function"
    },
    {
      "constant": true,
      "inputs": [],
      "name": "getBranches",
      "outputs": [
        {
          "internalType": "uint256[]",
          "name": "",
          "type": "uint256[]"
        },
        {
          "internalType": "address[]",
          "name": "",
          "type": "address[]"
        }
      ],
      "payable": false,
      "stateMutability": "view",
      "type": "function"
    }
  ],
  "bytecode": "0x608060405234801561001057600080fd5b50336000806101000a81548173ffffffffffffffffffffffffffffffffffffffff021916908373ffffffffffffffffffffffffffffffffffffffff16021790555060006033819055506100683361006d60201b60201c565b61021a565b6000809054906101000a900473ffffffffffffffffffffffffffffffffffffffff1673ffffffffffffffffffffffffffffffffffffffff163373ffffffffffffffffffffffffffffffffffffffff16146100c657600080fd5b600a603354106100d557600080fd5b6001603354016001603354600a81106100ea57fe5b6005020160000181905550806001603354600a811061010557fe5b6005020160010160006101000a81548173ffffffffffffffffffffffffffffffffffffffff021916908373ffffffffffffffffffffffffffffffffffffffff1602179055506001603354016033819055507fd6a9db57b61df455bc64d8977f354076a5827f654dc17e05ee8eff6bb9d89c858160016033540160405161018c9291906101b5565b60405180910390a150565b6101a0816101de565b82525050565b6101af81610210565b82525050565b60006040820190506101ca6000830185610197565b6101d760208301846101a6565b9392505050565b60006101e9826101f0565b9050919050565b600073ffffffffffffffffffffffffffffffffffffffff82169050919050565b6000819050919050565b61095f806102296000396000f3fe608060405234801561001057600080fd5b50600436106100575760003560e01c806383cc76601461005c5780638da5cb5b1461008f578063c3387858146100ad578063cea83838146100cc578063e5ea7d01146100ea575b600080fd5b6100766004803603610071919081019061056d565b610106565b604051610086949392919061078d565b60405180910390f35b610097610289565b6040516100a491906106f7565b60405180910390f35b6100b56102ae565b6040516100c392919061073b565b60405180910390f35b6100d46103ea565b6040516100e19190610772565b60405180910390f35b61010460048036036100ff9190810190610544565b6103f0565b005b600181600a811061011357fe5b600502016000915090508060000154908060010160009054906101000a900473ffffffffffffffffffffffffffffffffffffffff1690806002018054600181600116156101000203166002900480601f0160208091040260200160405190810160405280929190818152602001828054600181600116156101000203166002900480156101e15780601f106101b6576101008083540402835291602001916101e1565b820191906000526020600020905b8154815290600101906020018083116101c457829003601f168201915b505050505090806003018054600181600116156101000203166002900480601f01602080910402602001604051908101604052809291908181526020018280546001816001161561010002031660029004801561027f5780601f106102545761010080835404028352916020019161027f565b820191906000526020600020905b81548152906001019060200180831161026257829003601f168201915b5050505050905084565b6000809054906101000a900473ffffffffffffffffffffffffffffffffffffffff1681565b6060806060600a6040519080825280602002602001820160405280156102e35781602001602082028038833980820191505090505b5090506060600a6040519080825280602002602001820160405280156103185781602001602082028038833980820191505090505b50905060008090505b600a8110156103dd57600181600a811061033757fe5b600502016000015483828151811061034b57fe5b602002602001018181525050600181600a811061036457fe5b6005020160010160009054906101000a900473ffffffffffffffffffffffffffffffffffffffff1682828151811061039857fe5b602002602001019073ffffffffffffffffffffffffffffffffffffffff16908173ffffffffffffffffffffffffffffffffffffffff1681525050600181019050610321565b5081819350935050509091565b60335481565b6000809054906101000a900473ffffffffffffffffffffffffffffffffffffffff1673ffffffffffffffffffffffffffffffffffffffff163373ffffffffffffffffffffffffffffffffffffffff161461044957600080fd5b600a6033541061045857600080fd5b6001603354016001603354600a811061046d57fe5b6005020160000181905550806001603354600a811061048857fe5b6005020160010160006101000a81548173ffffffffffffffffffffffffffffffffffffffff021916908373ffffffffffffffffffffffffffffffffffffffff1602179055506001603354016033819055507fd6a9db57b61df455bc64d8977f354076a5827f654dc17e05ee8eff6bb9d89c858160016033540160405161050f929190610712565b60405180910390a150565b600081359050610529816108ee565b92915050565b60008135905061053e81610905565b92915050565b60006020828403121561055657600080fd5b60006105648482850161051a565b91505092915050565b60006020828403121561057f57600080fd5b600061058d8482850161052f565b91505092915050565b60006105a283836105c6565b60208301905092915050565b60006105ba83836106d9565b60208301905092915050565b6105cf8161086e565b82525050565b6105de8161086e565b82525050565b60006105ef82610800565b6105f9818561083b565b9350610604836107e0565b8060005b8381101561063557815161061c8882610596565b975061062783610821565b925050600181019050610608565b5085935050505092915050565b600061064d8261080b565b610657818561084c565b9350610662836107f0565b8060005b8381101561069357815161067a88826105ae565b97506106858361082e565b925050600181019050610666565b5085935050505092915050565b60006106ab82610816565b6106b5818561085d565b93506106c58185602086016108aa565b6106ce816108dd565b840191505092915050565b6106e2816108a0565b82525050565b6106f1816108a0565b82525050565b600060208201905061070c60008301846105d5565b92915050565b600060408201905061072760008301856105d5565b61073460208301846106e8565b9392505050565b600060408201905081810360008301526107558185610642565b9050818103602083015261076981846105e4565b90509392505050565b600060208201905061078760008301846106e8565b92915050565b60006080820190506107a260008301876106e8565b6107af60208301866105d5565b81810360408301526107c181856106a0565b905081810360608301526107d581846106a0565b905095945050505050565b6000819050602082019050919050565b6000819050602082019050919050565b600081519050919050565b600081519050919050565b600081519050919050565b6000602082019050919050565b6000602082019050919050565b600082825260208201905092915050565b600082825260208201905092915050565b600082825260208201905092915050565b600061087982610880565b9050919050565b600073ffffffffffffffffffffffffffffffffffffffff82169050919050565b6000819050919050565b60005b838110156108c85780820151818401526020810190506108ad565b838111156108d7576000848401525b50505050565b6000601f19601f8301169050919050565b6108f78161086e565b811461090257600080fd5b50565b61090e816108a0565b811461091957600080fd5b5056fea365627a7a72315820a252dc8117d7ce768d6e1562fb5e17982f4b0f6a890ced80522c3c2278dedf026c6578706572696d656e74616cf564736f6c63430005100040",
  "source": "// SPDX-License-Identifier: MIT\r\npragma solidity >=0.5.0 <0.9.0;\r\npragma experimental ABIEncoderV2;\r\n\r\ncontract PetShop {\r\n\r\n    address public owner;\r\n    Branch[10] public branches;\r\n    uint public newBranchId;\r\n\r\n    event BranchAdded(address branch, uint id);\r\n\r\n    struct Pet {\r\n        uint id;\r\n        string name;\r\n        uint age;\r\n        uint nationalID;\r\n        address owner;\r\n    }\r\n\r\n    struct Branch {\r\n        uint id;\r\n        address owner;\r\n        string location;\r\n        string phoneNumber;\r\n        Pet[] pets;\r\n    }\r\n\r\n\r\n    constructor() public {\r\n        owner = msg.sender;\r\n        newBranchId = 0;\r\n        addBranch(msg.sender);\r\n    }\r\n\r\n    function addBranch(address branchAddress) public {\r\n        require(msg.sender == owner);\r\n        require(newBranchId < 10);\r\n        branches[newBranchId].id = newBranchId + 1;\r\n        branches[newBranchId].owner = branchAddress;\r\n        newBranchId = newBranchId + 1;\r\n        emit BranchAdded(branchAddress, newBranchId + 1);\r\n    }\r\n\r\n    function getBranches() public view returns (uint[] memory, address[] memory) {\r\n        uint[] memory ids = new uint[](10);\r\n        address[] memory addresses = new address[](10);\r\n        for (uint i = 0; i < 10; i+=1) {\r\n            ids[i] = branches[i].id;\r\n            addresses[i] = branches[i].owner;\r\n        }\r\n        return (ids, addresses);\r\n    }\r\n\r\n}",
  "sourcePath": "F:\\Work\\Ethereum\\Projects\\Truffle-based-projects\\Pet-Shop\\contracts\\PetShop.sol",
  "compiler": {
    "name": "solc",
    "version": "0.5.16+commit.9c3226ce.Emscripten.clang"
  },
  "schemaVersion": "3.4.3",
  "updatedAt": "2021-11-28T08:13:28.785Z",
  "devdoc": {
    "methods": {}
  },
  "userdoc": {
    "methods": {}
  }
}