{
  "contractName": "PetShop",
  "abi": [
    {
      "inputs": [],
      "payable": false,
      "stateMutability": "nonpayable",
      "type": "constructor"
    },
    {
      "anonymous": false,
      "inputs": [
        {
          "indexed": false,
          "internalType": "address",
          "name": "agent",
          "type": "address"
        },
        {
          "indexed": false,
          "internalType": "uint256",
          "name": "id",
          "type": "uint256"
        }
      ],
      "name": "AgentAdded",
      "type": "event"
    },
    {
      "constant": true,
      "inputs": [
        {
          "internalType": "uint256",
          "name": "",
          "type": "uint256"
        }
      ],
      "name": "agents",
      "outputs": [
        {
          "internalType": "uint256",
          "name": "id",
          "type": "uint256"
        },
        {
          "internalType": "address",
          "name": "owner",
          "type": "address"
        }
      ],
      "payable": false,
      "stateMutability": "view",
      "type": "function"
    },
    {
      "constant": true,
      "inputs": [],
      "name": "lastAgentId",
      "outputs": [
        {
          "internalType": "uint256",
          "name": "",
          "type": "uint256"
        }
      ],
      "payable": false,
      "stateMutability": "view",
      "type": "function"
    },
    {
      "constant": true,
      "inputs": [],
      "name": "owner",
      "outputs": [
        {
          "internalType": "address",
          "name": "",
          "type": "address"
        }
      ],
      "payable": false,
      "stateMutability": "view",
      "type": "function"
    },
    {
      "constant": false,
      "inputs": [
        {
          "internalType": "address",
          "name": "agentAddress",
          "type": "address"
        }
      ],
      "name": "addAgent",
      "outputs": [],
      "payable": false,
      "stateMutability": "nonpayable",
      "type": "function"
    },
    {
      "constant": true,
      "inputs": [],
      "name": "getAgents",
      "outputs": [
        {
          "internalType": "uint256[]",
          "name": "",
          "type": "uint256[]"
        },
        {
          "internalType": "address[]",
          "name": "",
          "type": "address[]"
        }
      ],
      "payable": false,
      "stateMutability": "view",
      "type": "function"
    }
  ],
  "bytecode": "0x608060405234801561001057600080fd5b50336000806101000a81548173ffffffffffffffffffffffffffffffffffffffff021916908373ffffffffffffffffffffffffffffffffffffffff1602179055506000601f819055506100683361006d60201b60201c565b61020f565b6000809054906101000a900473ffffffffffffffffffffffffffffffffffffffff1673ffffffffffffffffffffffffffffffffffffffff163373ffffffffffffffffffffffffffffffffffffffff16146100c657600080fd5b6009601f54106100d557600080fd5b60006001601f54019050806001808303600a81106100ef57fe5b6003020160000181905550816001808303600a811061010a57fe5b6003020160010160006101000a81548173ffffffffffffffffffffffffffffffffffffffff021916908373ffffffffffffffffffffffffffffffffffffffff1602179055507f851ab187815842268bf6114f7b33b0cbc004d18211b55a0a8208aa0a5cdff84082826040516101809291906101aa565b60405180910390a15050565b610195816101d3565b82525050565b6101a481610205565b82525050565b60006040820190506101bf600083018561018c565b6101cc602083018461019b565b9392505050565b60006101de826101e5565b9050919050565b600073ffffffffffffffffffffffffffffffffffffffff82169050919050565b6000819050919050565b6107538061021e6000396000f3fe608060405234801561001057600080fd5b50600436106100575760003560e01c8063513856c81461005c57806384e798421461008d5780638da5cb5b146100a9578063cdde6d9a146100c7578063eac3fda4146100e5575b600080fd5b61007660048036036100719190810190610424565b610104565b60405161008492919061060b565b60405180910390f35b6100a760048036036100a291908101906103fb565b61014b565b005b6100b161026a565b6040516100be9190610575565b60405180910390f35b6100cf61028f565b6040516100dc91906105f0565b60405180910390f35b6100ed610295565b6040516100fb9291906105b9565b60405180910390f35b600181600a811061011157fe5b600302016000915090508060000154908060010160009054906101000a900473ffffffffffffffffffffffffffffffffffffffff16905082565b6000809054906101000a900473ffffffffffffffffffffffffffffffffffffffff1673ffffffffffffffffffffffffffffffffffffffff163373ffffffffffffffffffffffffffffffffffffffff16146101a457600080fd5b6009601f54106101b357600080fd5b60006001601f54019050806001808303600a81106101cd57fe5b6003020160000181905550816001808303600a81106101e857fe5b6003020160010160006101000a81548173ffffffffffffffffffffffffffffffffffffffff021916908373ffffffffffffffffffffffffffffffffffffffff1602179055507f851ab187815842268bf6114f7b33b0cbc004d18211b55a0a8208aa0a5cdff840828260405161025e929190610590565b60405180910390a15050565b6000809054906101000a900473ffffffffffffffffffffffffffffffffffffffff1681565b601f5481565b6060806060600a6040519080825280602002602001820160405280156102ca5781602001602082028038833980820191505090505b5090506060600a6040519080825280602002602001820160405280156102ff5781602001602082028038833980820191505090505b50905060008090505b600a8110156103c457600181600a811061031e57fe5b600302016000015483828151811061033257fe5b602002602001018181525050600181600a811061034b57fe5b6003020160010160009054906101000a900473ffffffffffffffffffffffffffffffffffffffff1682828151811061037f57fe5b602002602001019073ffffffffffffffffffffffffffffffffffffffff16908173ffffffffffffffffffffffffffffffffffffffff1681525050600181019050610308565b5081819350935050509091565b6000813590506103e0816106e2565b92915050565b6000813590506103f5816106f9565b92915050565b60006020828403121561040d57600080fd5b600061041b848285016103d1565b91505092915050565b60006020828403121561043657600080fd5b6000610444848285016103e6565b91505092915050565b6000610459838361047d565b60208301905092915050565b60006104718383610557565b60208301905092915050565b610486816106a6565b82525050565b610495816106a6565b82525050565b60006104a682610654565b6104b08185610684565b93506104bb83610634565b8060005b838110156104ec5781516104d3888261044d565b97506104de8361066a565b9250506001810190506104bf565b5085935050505092915050565b60006105048261065f565b61050e8185610695565b935061051983610644565b8060005b8381101561054a5781516105318882610465565b975061053c83610677565b92505060018101905061051d565b5085935050505092915050565b610560816106d8565b82525050565b61056f816106d8565b82525050565b600060208201905061058a600083018461048c565b92915050565b60006040820190506105a5600083018561048c565b6105b26020830184610566565b9392505050565b600060408201905081810360008301526105d381856104f9565b905081810360208301526105e7818461049b565b90509392505050565b60006020820190506106056000830184610566565b92915050565b60006040820190506106206000830185610566565b61062d602083018461048c565b9392505050565b6000819050602082019050919050565b6000819050602082019050919050565b600081519050919050565b600081519050919050565b6000602082019050919050565b6000602082019050919050565b600082825260208201905092915050565b600082825260208201905092915050565b60006106b1826106b8565b9050919050565b600073ffffffffffffffffffffffffffffffffffffffff82169050919050565b6000819050919050565b6106eb816106a6565b81146106f657600080fd5b50565b610702816106d8565b811461070d57600080fd5b5056fea365627a7a72315820e1d66a2ba67f762557bb559910284bd6fec10b427ada2acd1c6446294c7fffa06c6578706572696d656e74616cf564736f6c63430005100040",
  "source": "// SPDX-License-Identifier: MIT\r\npragma solidity >=0.5.0 <0.9.0;\r\npragma experimental ABIEncoderV2;\r\n\r\ncontract PetShop {\r\n\r\n    address public owner;\r\n    Agent[10] public agents;\r\n    uint public lastAgentId;\r\n\r\n    event AgentAdded(address agent, uint id);\r\n\r\n    struct Pet {\r\n        uint id;\r\n        string name;\r\n        uint age;\r\n        uint nationalID;\r\n        address owner;\r\n    }\r\n\r\n    struct Agent {\r\n        uint id;\r\n        address owner;\r\n        Pet[] pets;\r\n    }\r\n\r\n\r\n    constructor() public {\r\n        owner = msg.sender;\r\n        lastAgentId = 0;\r\n        addAgent(msg.sender);\r\n    }\r\n\r\n    function addAgent(address agentAddress) public {\r\n        require(msg.sender == owner);\r\n        require(lastAgentId < 9);\r\n        uint newAgentId = lastAgentId + 1;\r\n        agents[newAgentId-1].id = newAgentId;\r\n        agents[newAgentId-1].owner = agentAddress;\r\n        emit AgentAdded(agentAddress, newAgentId);\r\n    }\r\n\r\n    function getAgents() public view returns (uint[] memory, address[] memory) {\r\n        uint[] memory ids = new uint[](10);\r\n        address[] memory addresses = new address[](10);\r\n        for (uint i = 0; i < 10; i+=1) {\r\n            ids[i] = agents[i].id;\r\n            addresses[i] = agents[i].owner;\r\n        }\r\n        return (ids, addresses);\r\n    }\r\n\r\n}",
  "sourcePath": "F:\\Work\\Ethereum\\Projects\\Truffle-based-projects\\Pet-Shop\\contracts\\PetShop.sol",
  "compiler": {
    "name": "solc",
    "version": "0.5.16+commit.9c3226ce.Emscripten.clang"
  },
  "schemaVersion": "3.4.3",
  "updatedAt": "2021-11-25T22:15:57.030Z",
  "networkType": "ethereum",
  "devdoc": {
    "methods": {}
  },
  "userdoc": {
    "methods": {}
  }
}