{
  "contractName": "PetShop",
  "abi": [
    {
      "inputs": [],
      "payable": false,
      "stateMutability": "nonpayable",
      "type": "constructor"
    },
    {
      "anonymous": false,
      "inputs": [
        {
          "indexed": false,
          "internalType": "address",
          "name": "branch",
          "type": "address"
        },
        {
          "indexed": false,
          "internalType": "uint256",
          "name": "id",
          "type": "uint256"
        }
      ],
      "name": "BranchAdded",
      "type": "event"
    },
    {
      "constant": true,
      "inputs": [
        {
          "internalType": "uint256",
          "name": "",
          "type": "uint256"
        }
      ],
      "name": "branches",
      "outputs": [
        {
          "internalType": "uint256",
          "name": "id",
          "type": "uint256"
        },
        {
          "internalType": "address",
          "name": "owner",
          "type": "address"
        },
        {
          "internalType": "string",
          "name": "title",
          "type": "string"
        },
        {
          "internalType": "string",
          "name": "location",
          "type": "string"
        },
        {
          "internalType": "string",
          "name": "phoneNumber",
          "type": "string"
        }
      ],
      "payable": false,
      "stateMutability": "view",
      "type": "function"
    },
    {
      "constant": true,
      "inputs": [],
      "name": "newBranchId",
      "outputs": [
        {
          "internalType": "uint256",
          "name": "",
          "type": "uint256"
        }
      ],
      "payable": false,
      "stateMutability": "view",
      "type": "function"
    },
    {
      "constant": true,
      "inputs": [],
      "name": "owner",
      "outputs": [
        {
          "internalType": "address",
          "name": "",
          "type": "address"
        }
      ],
      "payable": false,
      "stateMutability": "view",
      "type": "function"
    },
    {
      "constant": false,
      "inputs": [
        {
          "internalType": "address",
          "name": "branchAddress",
          "type": "address"
        },
        {
          "internalType": "string",
          "name": "title",
          "type": "string"
        }
      ],
      "name": "addBranch",
      "outputs": [],
      "payable": false,
      "stateMutability": "nonpayable",
      "type": "function"
    },
    {
      "constant": true,
      "inputs": [],
      "name": "getBranches",
      "outputs": [
        {
          "internalType": "uint256[]",
          "name": "",
          "type": "uint256[]"
        },
        {
          "internalType": "address[]",
          "name": "",
          "type": "address[]"
        },
        {
          "internalType": "string[]",
          "name": "",
          "type": "string[]"
        }
      ],
      "payable": false,
      "stateMutability": "view",
      "type": "function"
    }
  ],
  "bytecode": "0x60806040523480156200001157600080fd5b50336000806101000a81548173ffffffffffffffffffffffffffffffffffffffff021916908373ffffffffffffffffffffffffffffffffffffffff1602179055506000603d81905550620000a1336040518060400160405280600681526020017f53686179616e0000000000000000000000000000000000000000000000000000815250620000a760201b60201c565b62000342565b6000809054906101000a900473ffffffffffffffffffffffffffffffffffffffff1673ffffffffffffffffffffffffffffffffffffffff163373ffffffffffffffffffffffffffffffffffffffff16146200010157600080fd5b600a603d54106200011157600080fd5b6001603d54016001603d54600a81106200012757fe5b6006020160000181905550816001603d54600a81106200014357fe5b6006020160010160006101000a81548173ffffffffffffffffffffffffffffffffffffffff021916908373ffffffffffffffffffffffffffffffffffffffff160217905550806001603d54600a81106200019957fe5b600602016002019080519060200190620001b592919062000206565b506001603d5401603d819055507fd6a9db57b61df455bc64d8977f354076a5827f654dc17e05ee8eff6bb9d89c85826001603d5401604051620001fa929190620002d7565b60405180910390a15050565b828054600181600116156101000203166002900490600052602060002090601f016020900481019282601f106200024957805160ff19168380011785556200027a565b828001600101855582156200027a579182015b82811115620002795782518255916020019190600101906200025c565b5b5090506200028991906200028d565b5090565b620002b291905b80821115620002ae57600081600090555060010162000294565b5090565b90565b620002c08162000304565b82525050565b620002d18162000338565b82525050565b6000604082019050620002ee6000830185620002b5565b620002fd6020830184620002c6565b9392505050565b6000620003118262000318565b9050919050565b600073ffffffffffffffffffffffffffffffffffffffff82169050919050565b6000819050919050565b610df180620003526000396000f3fe608060405234801561001057600080fd5b50600436106100575760003560e01c806383cc76601461005c5780638da5cb5b14610090578063c3387858146100ae578063cd3c47d2146100ce578063cea83838146100ea575b600080fd5b61007660048036036100719190810190610861565b610108565b604051610087959493929190610b58565b60405180910390f35b610098610329565b6040516100a59190610aad565b60405180910390f35b6100b661034e565b6040516100c593929190610af1565b60405180910390f35b6100e860048036036100e3919081019061080d565b61058e565b005b6100f26106e4565b6040516100ff9190610b3d565b60405180910390f35b600181600a811061011557fe5b600602016000915090508060000154908060010160009054906101000a900473ffffffffffffffffffffffffffffffffffffffff1690806002018054600181600116156101000203166002900480601f0160208091040260200160405190810160405280929190818152602001828054600181600116156101000203166002900480156101e35780601f106101b8576101008083540402835291602001916101e3565b820191906000526020600020905b8154815290600101906020018083116101c657829003601f168201915b505050505090806003018054600181600116156101000203166002900480601f0160208091040260200160405190810160405280929190818152602001828054600181600116156101000203166002900480156102815780601f1061025657610100808354040283529160200191610281565b820191906000526020600020905b81548152906001019060200180831161026457829003601f168201915b505050505090806004018054600181600116156101000203166002900480601f01602080910402602001604051908101604052809291908181526020018280546001816001161561010002031660029004801561031f5780601f106102f45761010080835404028352916020019161031f565b820191906000526020600020905b81548152906001019060200180831161030257829003601f168201915b5050505050905085565b6000809054906101000a900473ffffffffffffffffffffffffffffffffffffffff1681565b606080606080600a6040519080825280602002602001820160405280156103845781602001602082028038833980820191505090505b5090506060600a6040519080825280602002602001820160405280156103b95781602001602082028038833980820191505090505b5090506060600a6040519080825280602002602001820160405280156103f357816020015b60608152602001906001900390816103de5790505b50905060008090505b600a81101561057c57600181600a811061041257fe5b600602016000015484828151811061042657fe5b602002602001018181525050600181600a811061043f57fe5b6006020160010160009054906101000a900473ffffffffffffffffffffffffffffffffffffffff1683828151811061047357fe5b602002602001019073ffffffffffffffffffffffffffffffffffffffff16908173ffffffffffffffffffffffffffffffffffffffff1681525050600181600a81106104ba57fe5b600602016002018054600181600116156101000203166002900480601f0160208091040260200160405190810160405280929190818152602001828054600181600116156101000203166002900480156105555780601f1061052a57610100808354040283529160200191610555565b820191906000526020600020905b81548152906001019060200180831161053857829003601f168201915b505050505082828151811061056657fe5b60200260200101819052506001810190506103fc565b50828282955095509550505050909192565b6000809054906101000a900473ffffffffffffffffffffffffffffffffffffffff1673ffffffffffffffffffffffffffffffffffffffff163373ffffffffffffffffffffffffffffffffffffffff16146105e757600080fd5b600a603d54106105f657600080fd5b6001603d54016001603d54600a811061060b57fe5b6006020160000181905550816001603d54600a811061062657fe5b6006020160010160006101000a81548173ffffffffffffffffffffffffffffffffffffffff021916908373ffffffffffffffffffffffffffffffffffffffff160217905550806001603d54600a811061067b57fe5b6006020160020190805190602001906106959291906106ea565b506001603d5401603d819055507fd6a9db57b61df455bc64d8977f354076a5827f654dc17e05ee8eff6bb9d89c85826001603d54016040516106d8929190610ac8565b60405180910390a15050565b603d5481565b828054600181600116156101000203166002900490600052602060002090601f016020900481019282601f1061072b57805160ff1916838001178555610759565b82800160010185558215610759579182015b8281111561075857825182559160200191906001019061073d565b5b509050610766919061076a565b5090565b61078c91905b80821115610788576000816000905550600101610770565b5090565b90565b60008135905061079e81610d80565b92915050565b600082601f8301126107b557600080fd5b81356107c86107c382610bed565b610bc0565b915080825260208301602083018583830111156107e457600080fd5b6107ef838284610d2d565b50505092915050565b60008135905061080781610d97565b92915050565b6000806040838503121561082057600080fd5b600061082e8582860161078f565b925050602083013567ffffffffffffffff81111561084b57600080fd5b610857858286016107a4565b9150509250929050565b60006020828403121561087357600080fd5b6000610881848285016107f8565b91505092915050565b600061089683836108ce565b60208301905092915050565b60006108ae8383610a1d565b905092915050565b60006108c28383610a8f565b60208301905092915050565b6108d781610cf1565b82525050565b6108e681610cf1565b82525050565b60006108f782610c49565b6109018185610c9c565b935061090c83610c19565b8060005b8381101561093d578151610924888261088a565b975061092f83610c75565b925050600181019050610910565b5085935050505092915050565b600061095582610c54565b61095f8185610cad565b93508360208202850161097185610c29565b8060005b858110156109ad578484038952815161098e85826108a2565b945061099983610c82565b925060208a01995050600181019050610975565b50829750879550505050505092915050565b60006109ca82610c5f565b6109d48185610cbe565b93506109df83610c39565b8060005b83811015610a105781516109f788826108b6565b9750610a0283610c8f565b9250506001810190506109e3565b5085935050505092915050565b6000610a2882610c6a565b610a328185610ccf565b9350610a42818560208601610d3c565b610a4b81610d6f565b840191505092915050565b6000610a6182610c6a565b610a6b8185610ce0565b9350610a7b818560208601610d3c565b610a8481610d6f565b840191505092915050565b610a9881610d23565b82525050565b610aa781610d23565b82525050565b6000602082019050610ac260008301846108dd565b92915050565b6000604082019050610add60008301856108dd565b610aea6020830184610a9e565b9392505050565b60006060820190508181036000830152610b0b81866109bf565b90508181036020830152610b1f81856108ec565b90508181036040830152610b33818461094a565b9050949350505050565b6000602082019050610b526000830184610a9e565b92915050565b600060a082019050610b6d6000830188610a9e565b610b7a60208301876108dd565b8181036040830152610b8c8186610a56565b90508181036060830152610ba08185610a56565b90508181036080830152610bb48184610a56565b90509695505050505050565b6000604051905081810181811067ffffffffffffffff82111715610be357600080fd5b8060405250919050565b600067ffffffffffffffff821115610c0457600080fd5b601f19601f8301169050602081019050919050565b6000819050602082019050919050565b6000819050602082019050919050565b6000819050602082019050919050565b600081519050919050565b600081519050919050565b600081519050919050565b600081519050919050565b6000602082019050919050565b6000602082019050919050565b6000602082019050919050565b600082825260208201905092915050565b600082825260208201905092915050565b600082825260208201905092915050565b600082825260208201905092915050565b600082825260208201905092915050565b6000610cfc82610d03565b9050919050565b600073ffffffffffffffffffffffffffffffffffffffff82169050919050565b6000819050919050565b82818337600083830152505050565b60005b83811015610d5a578082015181840152602081019050610d3f565b83811115610d69576000848401525b50505050565b6000601f19601f8301169050919050565b610d8981610cf1565b8114610d9457600080fd5b50565b610da081610d23565b8114610dab57600080fd5b5056fea365627a7a7231582013d8bfbc23e0e8126c7074de589fa224cbc33c84a062e56b50fa3fffcee280096c6578706572696d656e74616cf564736f6c63430005100040",
  "source": "// SPDX-License-Identifier: MIT\r\npragma solidity >=0.5.0 <0.9.0;\r\npragma experimental ABIEncoderV2;\r\n\r\ncontract PetShop {\r\n\r\n    address public owner;\r\n    uint constant branchCap = 10;\r\n    Branch[branchCap] public branches;\r\n    uint public newBranchId;\r\n\r\n    event BranchAdded(address branch, uint id);\r\n\r\n    struct Pet {\r\n        uint id;\r\n        string name;\r\n        uint age;\r\n        uint nationalID;\r\n        address owner;\r\n    }\r\n\r\n    struct Branch {\r\n        uint id;\r\n        address owner;\r\n        string title;\r\n        string location;\r\n        string phoneNumber;\r\n        Pet[] pets;\r\n    }\r\n\r\n\r\n    constructor() public {\r\n        owner = msg.sender;\r\n        newBranchId = 0;\r\n        addBranch(msg.sender, \"Shayan\");\r\n    }\r\n\r\n    function addBranch(address branchAddress, string memory title) public {\r\n        require(msg.sender == owner);\r\n        require(newBranchId < branchCap);\r\n        branches[newBranchId].id = newBranchId + 1;\r\n        branches[newBranchId].owner = branchAddress;\r\n        branches[newBranchId].title = title;\r\n        newBranchId = newBranchId + 1;\r\n        emit BranchAdded(branchAddress, newBranchId + 1);\r\n    }\r\n\r\n    function getBranches() public view returns (uint[] memory, address[] memory, string[] memory) {\r\n        uint[] memory ids = new uint[](branchCap);\r\n        address[] memory addresses = new address[](branchCap);\r\n        string[] memory titles = new string[](branchCap);\r\n        for (uint i = 0; i < branchCap; i+=1) {\r\n            ids[i] = branches[i].id;\r\n            addresses[i] = branches[i].owner;\r\n            titles[i] = branches[i].title;\r\n        }\r\n        return (ids, addresses, titles);\r\n    }\r\n\r\n}",
  "sourcePath": "F:\\Work\\Ethereum\\Projects\\Truffle-based-projects\\Pet-Shop\\contracts\\PetShop.sol",
  "compiler": {
    "name": "solc",
    "version": "0.5.16+commit.9c3226ce.Emscripten.clang"
  },
  "schemaVersion": "3.4.3",
  "updatedAt": "2021-12-01T17:55:10.048Z",
  "networkType": "ethereum",
  "devdoc": {
    "methods": {}
  },
  "userdoc": {
    "methods": {}
  }
}